{
  "_format": "hh-sol-artifact-1",
  "contractName": "KanaGame",
  "sourceName": "contracts/KanaGame.sol",
  "abi": [
    {
      "inputs": [],
      "stateMutability": "nonpayable",
      "type": "constructor"
    },
    {
      "inputs": [
        {
          "internalType": "address",
          "name": "owner",
          "type": "address"
        }
      ],
      "name": "OwnableInvalidOwner",
      "type": "error"
    },
    {
      "inputs": [
        {
          "internalType": "address",
          "name": "account",
          "type": "address"
        }
      ],
      "name": "OwnableUnauthorizedAccount",
      "type": "error"
    },
    {
      "inputs": [],
      "name": "ReentrancyGuardReentrantCall",
      "type": "error"
    },
    {
      "anonymous": false,
      "inputs": [
        {
          "indexed": true,
          "internalType": "address",
          "name": "player",
          "type": "address"
        },
        {
          "indexed": false,
          "internalType": "enum KanaGame.GameMode",
          "name": "mode",
          "type": "uint8"
        }
      ],
      "name": "GameStarted",
      "type": "event"
    },
    {
      "anonymous": false,
      "inputs": [
        {
          "indexed": true,
          "internalType": "address",
          "name": "player",
          "type": "address"
        },
        {
          "indexed": false,
          "internalType": "enum KanaGame.GameMode",
          "name": "mode",
          "type": "uint8"
        },
        {
          "indexed": false,
          "internalType": "uint256",
          "name": "tokenId",
          "type": "uint256"
        }
      ],
      "name": "GameWon",
      "type": "event"
    },
    {
      "anonymous": false,
      "inputs": [
        {
          "indexed": true,
          "internalType": "address",
          "name": "previousOwner",
          "type": "address"
        },
        {
          "indexed": true,
          "internalType": "address",
          "name": "newOwner",
          "type": "address"
        }
      ],
      "name": "OwnershipTransferred",
      "type": "event"
    },
    {
      "anonymous": false,
      "inputs": [
        {
          "indexed": true,
          "internalType": "address",
          "name": "player",
          "type": "address"
        },
        {
          "indexed": false,
          "internalType": "uint256",
          "name": "amount",
          "type": "uint256"
        }
      ],
      "name": "PaymentReceived",
      "type": "event"
    },
    {
      "inputs": [],
      "name": "GAME_COST",
      "outputs": [
        {
          "internalType": "uint256",
          "name": "",
          "type": "uint256"
        }
      ],
      "stateMutability": "view",
      "type": "function"
    },
    {
      "inputs": [],
      "name": "getBalance",
      "outputs": [
        {
          "internalType": "uint256",
          "name": "",
          "type": "uint256"
        }
      ],
      "stateMutability": "view",
      "type": "function"
    },
    {
      "inputs": [],
      "name": "nftContract",
      "outputs": [
        {
          "internalType": "contract KanaNFT",
          "name": "",
          "type": "address"
        }
      ],
      "stateMutability": "view",
      "type": "function"
    },
    {
      "inputs": [
        {
          "internalType": "address",
          "name": "player",
          "type": "address"
        },
        {
          "internalType": "enum KanaGame.GameMode",
          "name": "mode",
          "type": "uint8"
        }
      ],
      "name": "onGameWon",
      "outputs": [],
      "stateMutability": "nonpayable",
      "type": "function"
    },
    {
      "inputs": [],
      "name": "owner",
      "outputs": [
        {
          "internalType": "address",
          "name": "",
          "type": "address"
        }
      ],
      "stateMutability": "view",
      "type": "function"
    },
    {
      "inputs": [],
      "name": "renounceOwnership",
      "outputs": [],
      "stateMutability": "nonpayable",
      "type": "function"
    },
    {
      "inputs": [
        {
          "internalType": "address",
          "name": "_nftContract",
          "type": "address"
        }
      ],
      "name": "setNFTContract",
      "outputs": [],
      "stateMutability": "nonpayable",
      "type": "function"
    },
    {
      "inputs": [
        {
          "internalType": "enum KanaGame.GameMode",
          "name": "mode",
          "type": "uint8"
        }
      ],
      "name": "startGame",
      "outputs": [],
      "stateMutability": "payable",
      "type": "function"
    },
    {
      "inputs": [
        {
          "internalType": "address",
          "name": "newOwner",
          "type": "address"
        }
      ],
      "name": "transferOwnership",
      "outputs": [],
      "stateMutability": "nonpayable",
      "type": "function"
    },
    {
      "inputs": [],
      "name": "withdraw",
      "outputs": [],
      "stateMutability": "nonpayable",
      "type": "function"
    }
  ],
  "bytecode": "0x608060405234801561001057600080fd5b50338061003757604051631e4fbdf760e01b81526000600482015260240160405180910390fd5b6100408161004a565b506001805561009a565b600080546001600160a01b038381166001600160a01b0319831681178455604051919092169283917f8be0079c531659141344cd1fd0a4f28419497f9722a3daafe3b4186f6b6457e09190a35050565b61079b806100a96000396000f3fe6080604052600436106100915760003560e01c8063a7ccabdf11610059578063a7ccabdf14610131578063cec2870114610151578063d56d229d14610171578063e6ab607914610191578063f2fde38b146101a457600080fd5b806312065fe0146100965780633ccfd60b146100b8578063491e55db146100cf578063715018a6146100ea5780638da5cb5b146100ff575b600080fd5b3480156100a257600080fd5b50475b6040519081526020015b60405180910390f35b3480156100c457600080fd5b506100cd6101c4565b005b3480156100db57600080fd5b506100a5662386f26fc1000081565b3480156100f657600080fd5b506100cd6102b1565b34801561010b57600080fd5b506000546001600160a01b03165b6040516001600160a01b0390911681526020016100af565b34801561013d57600080fd5b506100cd61014c366004610608565b6102c5565b34801561015d57600080fd5b506100cd61016c366004610639565b6102ef565b34801561017d57600080fd5b50600254610119906001600160a01b031681565b6100cd61019f36600461066c565b61041f565b3480156101b057600080fd5b506100cd6101bf366004610608565b61050a565b6101cc610545565b47806102185760405162461bcd60e51b81526020600482015260166024820152754e6f2062616c616e636520746f20776974686472617760501b60448201526064015b60405180910390fd5b600080546040516001600160a01b039091169083908381818185875af1925050503d8060008114610265576040519150601f19603f3d011682016040523d82523d6000602084013e61026a565b606091505b50509050806102ad5760405162461bcd60e51b815260206004820152600f60248201526e151c985b9cd9995c8819985a5b1959608a1b604482015260640161020f565b5050565b6102b9610545565b6102c36000610572565b565b6102cd610545565b600280546001600160a01b0319166001600160a01b0392909216919091179055565b6102f7610545565b60008082600181111561030c5761030c610687565b1461033757604051806040016040528060088152602001674b4154414b414e4160c01b815250610359565b604051806040016040528060088152602001674849524147414e4160c01b8152505b600254604051630fc7e0c360e01b81529192506000916001600160a01b0390911690630fc7e0c390610391908790869060040161069d565b6020604051808303816000875af11580156103b0573d6000803e3d6000fd5b505050506040513d601f19601f820116820180604052508101906103d491906106fb565b9050836001600160a01b03167f2f5faa1b9c7af65991fbb8dc55f027dc25e940abac4513dbb32509783cc8b5688483604051610411929190610736565b60405180910390a250505050565b6104276105c2565b662386f26fc1000034146104885760405162461bcd60e51b815260206004820152602260248201527f4d7573742073656e642065786163746c7920302e30312045544820746f20706c604482015261617960f01b606482015260840161020f565b336001600160a01b03167f9bc378d51086deb68787e860fcf4df87fe0e36aa70aac138349f313277ccce3b826040516104c19190610751565b60405180910390a260405134815233907f6ef95f06320e7a25a04a175ca677b7052bdd97131872c2192525a629f51be7709060200160405180910390a261050760018055565b50565b610512610545565b6001600160a01b03811661053c57604051631e4fbdf760e01b81526000600482015260240161020f565b61050781610572565b6000546001600160a01b031633146102c35760405163118cdaa760e01b815233600482015260240161020f565b600080546001600160a01b038381166001600160a01b0319831681178455604051919092169283917f8be0079c531659141344cd1fd0a4f28419497f9722a3daafe3b4186f6b6457e09190a35050565b6002600154036105e557604051633ee5aeb560e01b815260040160405180910390fd5b6002600155565b80356001600160a01b038116811461060357600080fd5b919050565b60006020828403121561061a57600080fd5b610623826105ec565b9392505050565b80356002811061060357600080fd5b6000806040838503121561064c57600080fd5b610655836105ec565b91506106636020840161062a565b90509250929050565b60006020828403121561067e57600080fd5b6106238261062a565b634e487b7160e01b600052602160045260246000fd5b60018060a01b038316815260006020604081840152835180604085015260005b818110156106d9578581018301518582016060015282016106bd565b506000606082860101526060601f19601f830116850101925050509392505050565b60006020828403121561070d57600080fd5b5051919050565b6002811061073257634e487b7160e01b600052602160045260246000fd5b9052565b604081016107448285610714565b8260208301529392505050565b6020810161075f8284610714565b9291505056fea2646970667358221220dea33215dee76fa9a7619fadb0217b436285af534b3a0c3c839afc43338c798364736f6c63430008140033",
  "linkReferences": {},
  "deployedLinkReferences": {}
}