{
    "_format": "hh-sol-artifact-1",
    "contractName": "KanaGame",
    "sourceName": "contracts/KanaGame.sol",
    "abi": [
        {
            "inputs": [],
            "stateMutability": "nonpayable",
            "type": "constructor"
        },
        {
            "inputs": [
                {
                    "internalType": "address",
                    "name": "owner",
                    "type": "address"
                }
            ],
            "name": "OwnableInvalidOwner",
            "type": "error"
        },
        {
            "inputs": [
                {
                    "internalType": "address",
                    "name": "account",
                    "type": "address"
                }
            ],
            "name": "OwnableUnauthorizedAccount",
            "type": "error"
        },
        {
            "inputs": [],
            "name": "ReentrancyGuardReentrantCall",
            "type": "error"
        },
        {
            "anonymous": false,
            "inputs": [
                {
                    "indexed": true,
                    "internalType": "address",
                    "name": "player",
                    "type": "address"
                },
                {
                    "indexed": false,
                    "internalType": "enum KanaGame.GameMode",
                    "name": "mode",
                    "type": "uint8"
                }
            ],
            "name": "GameStarted",
            "type": "event"
        },
        {
            "anonymous": false,
            "inputs": [
                {
                    "indexed": true,
                    "internalType": "address",
                    "name": "previousOwner",
                    "type": "address"
                },
                {
                    "indexed": true,
                    "internalType": "address",
                    "name": "newOwner",
                    "type": "address"
                }
            ],
            "name": "OwnershipTransferred",
            "type": "event"
        },
        {
            "anonymous": false,
            "inputs": [
                {
                    "indexed": true,
                    "internalType": "address",
                    "name": "player",
                    "type": "address"
                },
                {
                    "indexed": false,
                    "internalType": "uint256",
                    "name": "amount",
                    "type": "uint256"
                }
            ],
            "name": "PaymentReceived",
            "type": "event"
        },
        {
            "inputs": [],
            "name": "GAME_COST",
            "outputs": [
                {
                    "internalType": "uint256",
                    "name": "",
                    "type": "uint256"
                }
            ],
            "stateMutability": "view",
            "type": "function"
        },
        {
            "inputs": [],
            "name": "getBalance",
            "outputs": [
                {
                    "internalType": "uint256",
                    "name": "",
                    "type": "uint256"
                }
            ],
            "stateMutability": "view",
            "type": "function"
        },
        {
            "inputs": [],
            "name": "owner",
            "outputs": [
                {
                    "internalType": "address",
                    "name": "",
                    "type": "address"
                }
            ],
            "stateMutability": "view",
            "type": "function"
        },
        {
            "inputs": [],
            "name": "renounceOwnership",
            "outputs": [],
            "stateMutability": "nonpayable",
            "type": "function"
        },
        {
            "inputs": [
                {
                    "internalType": "enum KanaGame.GameMode",
                    "name": "mode",
                    "type": "uint8"
                }
            ],
            "name": "startGame",
            "outputs": [],
            "stateMutability": "payable",
            "type": "function"
        },
        {
            "inputs": [
                {
                    "internalType": "address",
                    "name": "newOwner",
                    "type": "address"
                }
            ],
            "name": "transferOwnership",
            "outputs": [],
            "stateMutability": "nonpayable",
            "type": "function"
        },
        {
            "inputs": [],
            "name": "withdraw",
            "outputs": [],
            "stateMutability": "nonpayable",
            "type": "function"
        }
    ],
    "bytecode": "0x608060405234801561001057600080fd5b50338061003757604051631e4fbdf760e01b81526000600482015260240160405180910390fd5b6100408161004a565b506001805561009a565b600080546001600160a01b038381166001600160a01b0319831681178455604051919092169283917f8be0079c531659141344cd1fd0a4f28419497f9722a3daafe3b4186f6b6457e09190a35050565b6104b6806100a96000396000f3fe6080604052600436106100705760003560e01c8063715018a61161004e578063715018a6146100c95780638da5cb5b146100de578063e6ab607914610106578063f2fde38b1461011957600080fd5b806312065fe0146100755780633ccfd60b14610097578063491e55db146100ae575b600080fd5b34801561008157600080fd5b50475b6040519081526020015b60405180910390f35b3480156100a357600080fd5b506100ac610139565b005b3480156100ba57600080fd5b50610084662386f26fc1000081565b3480156100d557600080fd5b506100ac610226565b3480156100ea57600080fd5b506000546040516001600160a01b03909116815260200161008e565b6100ac610114366004610407565b61023a565b34801561012557600080fd5b506100ac61013436600461042f565b610325565b610141610360565b478061018d5760405162461bcd60e51b81526020600482015260166024820152754e6f2062616c616e636520746f20776974686472617760501b60448201526064015b60405180910390fd5b600080546040516001600160a01b039091169083908381818185875af1925050503d80600081146101da576040519150601f19603f3d011682016040523d82523d6000602084013e6101df565b606091505b50509050806102225760405162461bcd60e51b815260206004820152600f60248201526e151c985b9cd9995c8819985a5b1959608a1b6044820152606401610184565b5050565b61022e610360565b610238600061038d565b565b6102426103dd565b662386f26fc1000034146102a35760405162461bcd60e51b815260206004820152602260248201527f4d7573742073656e642065786163746c7920302e30312045544820746f20706c604482015261617960f01b6064820152608401610184565b336001600160a01b03167f9bc378d51086deb68787e860fcf4df87fe0e36aa70aac138349f313277ccce3b826040516102dc9190610458565b60405180910390a260405134815233907f6ef95f06320e7a25a04a175ca677b7052bdd97131872c2192525a629f51be7709060200160405180910390a261032260018055565b50565b61032d610360565b6001600160a01b03811661035757604051631e4fbdf760e01b815260006004820152602401610184565b6103228161038d565b6000546001600160a01b031633146102385760405163118cdaa760e01b8152336004820152602401610184565b600080546001600160a01b038381166001600160a01b0319831681178455604051919092169283917f8be0079c531659141344cd1fd0a4f28419497f9722a3daafe3b4186f6b6457e09190a35050565b60026001540361040057604051633ee5aeb560e01b815260040160405180910390fd5b6002600155565b60006020828403121561041957600080fd5b81356002811061042857600080fd5b9392505050565b60006020828403121561044157600080fd5b81356001600160a01b038116811461042857600080fd5b602081016002831061047a57634e487b7160e01b600052602160045260246000fd5b9190529056fea264697066735822122080e4a1347e69013066a9274d1ac221a49a33576b27b98087a46cb7860871dc9064736f6c63430008140033",
    "linkReferences": {},
    "deployedLinkReferences": {}
}